{
  "address": "0x00346D2Fd4B2Dc3468fA38B857409BC99f832ef8",
  "abi": [
    {
      "anonymous": false,
      "inputs": [
        {
          "indexed": false,
          "internalType": "address",
          "name": "newLayerZeroEndpoint",
          "type": "address"
        }
      ],
      "name": "LayerZeroEndpointUpdated",
      "type": "event"
    },
    {
      "anonymous": false,
      "inputs": [
        {
          "indexed": true,
          "internalType": "address",
          "name": "previousOwner",
          "type": "address"
        },
        {
          "indexed": true,
          "internalType": "address",
          "name": "newOwner",
          "type": "address"
        }
      ],
      "name": "OwnershipTransferred",
      "type": "event"
    },
    {
      "anonymous": false,
      "inputs": [
        {
          "indexed": false,
          "internalType": "address",
          "name": "newRateProvider",
          "type": "address"
        }
      ],
      "name": "RateProviderUpdated",
      "type": "event"
    },
    {
      "anonymous": false,
      "inputs": [
        {
          "indexed": false,
          "internalType": "uint256",
          "name": "newRate",
          "type": "uint256"
        }
      ],
      "name": "RateUpdated",
      "type": "event"
    },
    {
      "anonymous": false,
      "inputs": [
        {
          "indexed": false,
          "internalType": "uint16",
          "name": "newSrcChainId",
          "type": "uint16"
        }
      ],
      "name": "SrcChainIdUpdated",
      "type": "event"
    },
    {
      "inputs": [],
      "name": "getRate",
      "outputs": [
        {
          "internalType": "uint256",
          "name": "",
          "type": "uint256"
        }
      ],
      "stateMutability": "view",
      "type": "function"
    },
    {
      "inputs": [],
      "name": "lastUpdated",
      "outputs": [
        {
          "internalType": "uint256",
          "name": "",
          "type": "uint256"
        }
      ],
      "stateMutability": "view",
      "type": "function"
    },
    {
      "inputs": [],
      "name": "layerZeroEndpoint",
      "outputs": [
        {
          "internalType": "address",
          "name": "",
          "type": "address"
        }
      ],
      "stateMutability": "view",
      "type": "function"
    },
    {
      "inputs": [
        {
          "internalType": "uint16",
          "name": "_srcChainId",
          "type": "uint16"
        },
        {
          "internalType": "bytes",
          "name": "_srcAddress",
          "type": "bytes"
        },
        {
          "internalType": "uint64",
          "name": "",
          "type": "uint64"
        },
        {
          "internalType": "bytes",
          "name": "_payload",
          "type": "bytes"
        }
      ],
      "name": "lzReceive",
      "outputs": [],
      "stateMutability": "nonpayable",
      "type": "function"
    },
    {
      "inputs": [],
      "name": "owner",
      "outputs": [
        {
          "internalType": "address",
          "name": "",
          "type": "address"
        }
      ],
      "stateMutability": "view",
      "type": "function"
    },
    {
      "inputs": [],
      "name": "rate",
      "outputs": [
        {
          "internalType": "uint256",
          "name": "",
          "type": "uint256"
        }
      ],
      "stateMutability": "view",
      "type": "function"
    },
    {
      "inputs": [],
      "name": "rateProvider",
      "outputs": [
        {
          "internalType": "address",
          "name": "",
          "type": "address"
        }
      ],
      "stateMutability": "view",
      "type": "function"
    },
    {
      "inputs": [],
      "name": "renounceOwnership",
      "outputs": [],
      "stateMutability": "nonpayable",
      "type": "function"
    },
    {
      "inputs": [],
      "name": "srcChainId",
      "outputs": [
        {
          "internalType": "uint16",
          "name": "",
          "type": "uint16"
        }
      ],
      "stateMutability": "view",
      "type": "function"
    },
    {
      "inputs": [
        {
          "internalType": "address",
          "name": "newOwner",
          "type": "address"
        }
      ],
      "name": "transferOwnership",
      "outputs": [],
      "stateMutability": "nonpayable",
      "type": "function"
    },
    {
      "inputs": [
        {
          "internalType": "address",
          "name": "_layerZeroEndpoint",
          "type": "address"
        }
      ],
      "name": "updateLayerZeroEndpoint",
      "outputs": [],
      "stateMutability": "nonpayable",
      "type": "function"
    },
    {
      "inputs": [
        {
          "internalType": "address",
          "name": "_rateProvider",
          "type": "address"
        }
      ],
      "name": "updateRateProvider",
      "outputs": [],
      "stateMutability": "nonpayable",
      "type": "function"
    },
    {
      "inputs": [
        {
          "internalType": "uint16",
          "name": "_srcChainId",
          "type": "uint16"
        }
      ],
      "name": "updateSrcChainId",
      "outputs": [],
      "stateMutability": "nonpayable",
      "type": "function"
    }
  ],
  "transactionHash": "0x8fc00db1bc26bdb2b1a75a634698a78b5d210e7de963cf704784a7b7c421028e",
  "args": [],
  "numDeployments": 2,
  "solcInputHash": "ef40a45b755cf21eb238acb889e2f424",
  "bytecode": "0x608060405234801561001057600080fd5b5061002d61002261003260201b60201c565b61003a60201b60201c565b6100fe565b600033905090565b60008060009054906101000a900473ffffffffffffffffffffffffffffffffffffffff169050816000806101000a81548173ffffffffffffffffffffffffffffffffffffffff021916908373ffffffffffffffffffffffffffffffffffffffff1602179055508173ffffffffffffffffffffffffffffffffffffffff168173ffffffffffffffffffffffffffffffffffffffff167f8be0079c531659141344cd1fd0a4f28419497f9722a3daafe3b4186f6b6457e060405160405180910390a35050565b610efe8061010d6000396000f3fe608060405234801561001057600080fd5b50600436106100ce5760003560e01c80634a7f931e1161008c5780638da5cb5b116100665780638da5cb5b146101c5578063949db658146101e3578063d0b06f5d14610201578063f2fde38b1461021f576100ce565b80634a7f931e14610181578063679aefce1461019d578063715018a6146101bb576100ce565b80621d3567146100d357806307968db1146100ef578063290b53501461010d5780632c4e722e14610129578063496c62e71461014757806349d1260514610163575b600080fd5b6100ed60048036038101906100e89190610a38565b61023b565b005b6100f761041f565b6040516101049190610b1d565b60405180910390f35b61012760048036038101906101229190610b38565b610445565b005b6101316104a4565b60405161013e9190610b7e565b60405180910390f35b610161600480360381019061015c9190610bc5565b6104aa565b005b61016b61052d565b6040516101789190610c01565b60405180910390f35b61019b60048036038101906101969190610bc5565b610541565b005b6101a56105c4565b6040516101b29190610b7e565b60405180910390f35b6101c36105ce565b005b6101cd6105e2565b6040516101da9190610b1d565b60405180910390f35b6101eb61060b565b6040516101f89190610b1d565b60405180910390f35b610209610631565b6040516102169190610b7e565b60405180910390f35b61023960048036038101906102349190610bc5565b610637565b005b600460009054906101000a900473ffffffffffffffffffffffffffffffffffffffff1673ffffffffffffffffffffffffffffffffffffffff163373ffffffffffffffffffffffffffffffffffffffff16146102cb576040517f08c379a00000000000000000000000000000000000000000000000000000000081526004016102c290610c79565b60405180910390fd5b600060148501519050600360009054906101000a900461ffff1661ffff168661ffff161461032e576040517f08c379a000000000000000000000000000000000000000000000000000000000815260040161032590610ce5565b60405180910390fd5b600360029054906101000a900473ffffffffffffffffffffffffffffffffffffffff1673ffffffffffffffffffffffffffffffffffffffff168173ffffffffffffffffffffffffffffffffffffffff16146103be576040517f08c379a00000000000000000000000000000000000000000000000000000000081526004016103b590610d51565b60405180910390fd5b600083838101906103cf9190610d9d565b905080600181905550426002819055507fe65c987b2e4668e09ba867026921588005b2b2063607a1e7e7d91683c8f91b7b8160405161040e9190610b7e565b60405180910390a150505050505050565b600460009054906101000a900473ffffffffffffffffffffffffffffffffffffffff1681565b61044d6106ba565b80600360006101000a81548161ffff021916908361ffff1602179055507f618f724fbcac3c2403733c2935c91acf3b9517362bacd763f22c288a58b17e25816040516104999190610c01565b60405180910390a150565b60015481565b6104b26106ba565b80600360026101000a81548173ffffffffffffffffffffffffffffffffffffffff021916908373ffffffffffffffffffffffffffffffffffffffff1602179055507f0d06d9b44e07c32063e5d28b944beae17c12e342870c5e7d956ec5b252a3f564816040516105229190610b1d565b60405180910390a150565b600360009054906101000a900461ffff1681565b6105496106ba565b80600460006101000a81548173ffffffffffffffffffffffffffffffffffffffff021916908373ffffffffffffffffffffffffffffffffffffffff1602179055507f07ac75b380fe4c5e41ea9b7030179bb21229b84ab9f9ba2fabebccd430ae2f6d816040516105b99190610b1d565b60405180910390a150565b6000600154905090565b6105d66106ba565b6105e06000610738565b565b60008060009054906101000a900473ffffffffffffffffffffffffffffffffffffffff16905090565b600360029054906101000a900473ffffffffffffffffffffffffffffffffffffffff1681565b60025481565b61063f6106ba565b600073ffffffffffffffffffffffffffffffffffffffff168173ffffffffffffffffffffffffffffffffffffffff16036106ae576040517f08c379a00000000000000000000000000000000000000000000000000000000081526004016106a590610e3c565b60405180910390fd5b6106b781610738565b50565b6106c26107fc565b73ffffffffffffffffffffffffffffffffffffffff166106e06105e2565b73ffffffffffffffffffffffffffffffffffffffff1614610736576040517f08c379a000000000000000000000000000000000000000000000000000000000815260040161072d90610ea8565b60405180910390fd5b565b60008060009054906101000a900473ffffffffffffffffffffffffffffffffffffffff169050816000806101000a81548173ffffffffffffffffffffffffffffffffffffffff021916908373ffffffffffffffffffffffffffffffffffffffff1602179055508173ffffffffffffffffffffffffffffffffffffffff168173ffffffffffffffffffffffffffffffffffffffff167f8be0079c531659141344cd1fd0a4f28419497f9722a3daafe3b4186f6b6457e060405160405180910390a35050565b600033905090565b6000604051905090565b600080fd5b600080fd5b600061ffff82169050919050565b61082f81610818565b811461083a57600080fd5b50565b60008135905061084c81610826565b92915050565b600080fd5b600080fd5b6000601f19601f8301169050919050565b7f4e487b7100000000000000000000000000000000000000000000000000000000600052604160045260246000fd5b6108a58261085c565b810181811067ffffffffffffffff821117156108c4576108c361086d565b5b80604052505050565b60006108d7610804565b90506108e3828261089c565b919050565b600067ffffffffffffffff8211156109035761090261086d565b5b61090c8261085c565b9050602081019050919050565b82818337600083830152505050565b600061093b610936846108e8565b6108cd565b90508281526020810184848401111561095757610956610857565b5b610962848285610919565b509392505050565b600082601f83011261097f5761097e610852565b5b813561098f848260208601610928565b91505092915050565b600067ffffffffffffffff82169050919050565b6109b581610998565b81146109c057600080fd5b50565b6000813590506109d2816109ac565b92915050565b600080fd5b600080fd5b60008083601f8401126109f8576109f7610852565b5b8235905067ffffffffffffffff811115610a1557610a146109d8565b5b602083019150836001820283011115610a3157610a306109dd565b5b9250929050565b600080600080600060808688031215610a5457610a5361080e565b5b6000610a628882890161083d565b955050602086013567ffffffffffffffff811115610a8357610a82610813565b5b610a8f8882890161096a565b9450506040610aa0888289016109c3565b935050606086013567ffffffffffffffff811115610ac157610ac0610813565b5b610acd888289016109e2565b92509250509295509295909350565b600073ffffffffffffffffffffffffffffffffffffffff82169050919050565b6000610b0782610adc565b9050919050565b610b1781610afc565b82525050565b6000602082019050610b326000830184610b0e565b92915050565b600060208284031215610b4e57610b4d61080e565b5b6000610b5c8482850161083d565b91505092915050565b6000819050919050565b610b7881610b65565b82525050565b6000602082019050610b936000830184610b6f565b92915050565b610ba281610afc565b8114610bad57600080fd5b50565b600081359050610bbf81610b99565b92915050565b600060208284031215610bdb57610bda61080e565b5b6000610be984828501610bb0565b91505092915050565b610bfb81610818565b82525050565b6000602082019050610c166000830184610bf2565b92915050565b600082825260208201905092915050565b7f53656e6465722073686f756c64206265206c7a20656e64706f696e7400000000600082015250565b6000610c63601c83610c1c565b9150610c6e82610c2d565b602082019050919050565b60006020820190508181036000830152610c9281610c56565b9050919050565b7f53726320636861696e4964206d75737420626520636f72726563740000000000600082015250565b6000610ccf601b83610c1c565b9150610cda82610c99565b602082019050919050565b60006020820190508181036000830152610cfe81610cc2565b9050919050565b7f5372632061646472657373206d7573742062652070726f766964657200000000600082015250565b6000610d3b601c83610c1c565b9150610d4682610d05565b602082019050919050565b60006020820190508181036000830152610d6a81610d2e565b9050919050565b610d7a81610b65565b8114610d8557600080fd5b50565b600081359050610d9781610d71565b92915050565b600060208284031215610db357610db261080e565b5b6000610dc184828501610d88565b91505092915050565b7f4f776e61626c653a206e6577206f776e657220697320746865207a65726f206160008201527f6464726573730000000000000000000000000000000000000000000000000000602082015250565b6000610e26602683610c1c565b9150610e3182610dca565b604082019050919050565b60006020820190508181036000830152610e5581610e19565b9050919050565b7f4f776e61626c653a2063616c6c6572206973206e6f7420746865206f776e6572600082015250565b6000610e92602083610c1c565b9150610e9d82610e5c565b602082019050919050565b60006020820190508181036000830152610ec181610e85565b905091905056fea2646970667358221220ad71a680d7eb115fe8d0e0114da619b269509e11313d5d9d7c5aff8490a87dac64736f6c63430008120033",
  "devdoc": {
    "author": "witherblock",
    "details": "Powered using LayerZero",
    "events": {
      "LayerZeroEndpointUpdated(address)": {
        "params": {
          "newLayerZeroEndpoint": "the LayerZero Endpoint address that was updated"
        }
      },
      "RateProviderUpdated(address)": {
        "params": {
          "newRateProvider": "the RateProvider address that was updated"
        }
      },
      "RateUpdated(uint256)": {
        "params": {
          "newRate": "the rate that was updated"
        }
      },
      "SrcChainIdUpdated(uint16)": {
        "params": {
          "newSrcChainId": "the source chainId that was updated"
        }
      }
    },
    "kind": "dev",
    "methods": {
      "lzReceive(uint16,bytes,uint64,bytes)": {
        "params": {
          "_payload": "The payload",
          "_srcAddress": "The source address",
          "_srcChainId": "The source chainId"
        }
      },
      "owner()": {
        "details": "Returns the address of the current owner."
      },
      "renounceOwnership()": {
        "details": "Leaves the contract without owner. It will not be possible to call `onlyOwner` functions anymore. Can only be called by the current owner. NOTE: Renouncing ownership will leave the contract without an owner, thereby removing any functionality that is only available to the owner."
      },
      "transferOwnership(address)": {
        "details": "Transfers ownership of the contract to a new account (`newOwner`). Can only be called by the current owner."
      },
      "updateLayerZeroEndpoint(address)": {
        "details": "Can only be called by owner",
        "params": {
          "_layerZeroEndpoint": "the new layer zero endpoint address"
        }
      },
      "updateRateProvider(address)": {
        "details": "Can only be called by owner",
        "params": {
          "_rateProvider": "the new rate provider address"
        }
      },
      "updateSrcChainId(uint16)": {
        "details": "Can only be called by owner",
        "params": {
          "_srcChainId": "the source chainId"
        }
      }
    },
    "title": "Cross chain rate receiver",
    "version": 1
  },
  "userdoc": {
    "events": {
      "LayerZeroEndpointUpdated(address)": {
        "notice": "Emitted when LayerZero Endpoint is updated"
      },
      "RateProviderUpdated(address)": {
        "notice": "Emitted when RateProvider is updated"
      },
      "RateUpdated(uint256)": {
        "notice": "Emitted when rate is updated"
      },
      "SrcChainIdUpdated(uint16)": {
        "notice": "Emitted when the source chainId is updated"
      }
    },
    "kind": "user",
    "methods": {
      "getRate()": {
        "notice": "Gets the last stored rate in the contract"
      },
      "lastUpdated()": {
        "notice": "Last time rate was updated"
      },
      "layerZeroEndpoint()": {
        "notice": "LayerZero endpoint address"
      },
      "lzReceive(uint16,bytes,uint64,bytes)": {
        "notice": "LayerZero receive function which is called via send from a different chain"
      },
      "rate()": {
        "notice": "Last rate updated on the receiver"
      },
      "rateProvider()": {
        "notice": "Rate Provider address"
      },
      "srcChainId()": {
        "notice": "Source chainId"
      },
      "updateLayerZeroEndpoint(address)": {
        "notice": "Updates the LayerZero Endpoint address"
      },
      "updateRateProvider(address)": {
        "notice": "Updates the RateProvider address"
      },
      "updateSrcChainId(uint16)": {
        "notice": "Updates the source chainId"
      }
    },
    "notice": "Receives a rate from a provider contract on a different chain than the one this contract is deployed on",
    "version": 1
  },
  "storageLayout": {
    "storage": [
      {
        "astId": 7,
        "contract": "contracts/CrossChainRateReceiver.sol:CrossChainRateReceiver",
        "label": "_owner",
        "offset": 0,
        "slot": "0",
        "type": "t_address"
      },
      {
        "astId": 325,
        "contract": "contracts/CrossChainRateReceiver.sol:CrossChainRateReceiver",
        "label": "rate",
        "offset": 0,
        "slot": "1",
        "type": "t_uint256"
      },
      {
        "astId": 328,
        "contract": "contracts/CrossChainRateReceiver.sol:CrossChainRateReceiver",
        "label": "lastUpdated",
        "offset": 0,
        "slot": "2",
        "type": "t_uint256"
      },
      {
        "astId": 331,
        "contract": "contracts/CrossChainRateReceiver.sol:CrossChainRateReceiver",
        "label": "srcChainId",
        "offset": 0,
        "slot": "3",
        "type": "t_uint16"
      },
      {
        "astId": 334,
        "contract": "contracts/CrossChainRateReceiver.sol:CrossChainRateReceiver",
        "label": "rateProvider",
        "offset": 2,
        "slot": "3",
        "type": "t_address"
      },
      {
        "astId": 337,
        "contract": "contracts/CrossChainRateReceiver.sol:CrossChainRateReceiver",
        "label": "layerZeroEndpoint",
        "offset": 0,
        "slot": "4",
        "type": "t_address"
      }
    ],
    "types": {
      "t_address": {
        "encoding": "inplace",
        "label": "address",
        "numberOfBytes": "20"
      },
      "t_uint16": {
        "encoding": "inplace",
        "label": "uint16",
        "numberOfBytes": "2"
      },
      "t_uint256": {
        "encoding": "inplace",
        "label": "uint256",
        "numberOfBytes": "32"
      }
    }
  }
}