{
  "address": "0x60b39BEC6AF8206d1E6E8DFC63ceA214A506D6c3",
  "abi": [
    {
      "inputs": [
        {
          "internalType": "uint16",
          "name": "_srcChainId",
          "type": "uint16"
        },
        {
          "internalType": "address",
          "name": "_rateProvider",
          "type": "address"
        },
        {
          "internalType": "address",
          "name": "_layerZeroEndpoint",
          "type": "address"
        }
      ],
      "stateMutability": "nonpayable",
      "type": "constructor"
    },
    {
      "anonymous": false,
      "inputs": [
        {
          "indexed": false,
          "internalType": "address",
          "name": "newLayerZeroEndpoint",
          "type": "address"
        }
      ],
      "name": "LayerZeroEndpointUpdated",
      "type": "event"
    },
    {
      "anonymous": false,
      "inputs": [
        {
          "indexed": true,
          "internalType": "address",
          "name": "previousOwner",
          "type": "address"
        },
        {
          "indexed": true,
          "internalType": "address",
          "name": "newOwner",
          "type": "address"
        }
      ],
      "name": "OwnershipTransferred",
      "type": "event"
    },
    {
      "anonymous": false,
      "inputs": [
        {
          "indexed": false,
          "internalType": "address",
          "name": "newRateProvider",
          "type": "address"
        }
      ],
      "name": "RateProviderUpdated",
      "type": "event"
    },
    {
      "anonymous": false,
      "inputs": [
        {
          "indexed": false,
          "internalType": "uint256",
          "name": "newRate",
          "type": "uint256"
        }
      ],
      "name": "RateUpdated",
      "type": "event"
    },
    {
      "anonymous": false,
      "inputs": [
        {
          "indexed": false,
          "internalType": "uint16",
          "name": "newSrcChainId",
          "type": "uint16"
        }
      ],
      "name": "SrcChainIdUpdated",
      "type": "event"
    },
    {
      "inputs": [],
      "name": "getRate",
      "outputs": [
        {
          "internalType": "uint256",
          "name": "",
          "type": "uint256"
        }
      ],
      "stateMutability": "view",
      "type": "function"
    },
    {
      "inputs": [],
      "name": "lastUpdated",
      "outputs": [
        {
          "internalType": "uint256",
          "name": "",
          "type": "uint256"
        }
      ],
      "stateMutability": "view",
      "type": "function"
    },
    {
      "inputs": [],
      "name": "layerZeroEndpoint",
      "outputs": [
        {
          "internalType": "address",
          "name": "",
          "type": "address"
        }
      ],
      "stateMutability": "view",
      "type": "function"
    },
    {
      "inputs": [
        {
          "internalType": "uint16",
          "name": "_srcChainId",
          "type": "uint16"
        },
        {
          "internalType": "bytes",
          "name": "_srcAddress",
          "type": "bytes"
        },
        {
          "internalType": "uint64",
          "name": "",
          "type": "uint64"
        },
        {
          "internalType": "bytes",
          "name": "_payload",
          "type": "bytes"
        }
      ],
      "name": "lzReceive",
      "outputs": [],
      "stateMutability": "nonpayable",
      "type": "function"
    },
    {
      "inputs": [],
      "name": "owner",
      "outputs": [
        {
          "internalType": "address",
          "name": "",
          "type": "address"
        }
      ],
      "stateMutability": "view",
      "type": "function"
    },
    {
      "inputs": [],
      "name": "rate",
      "outputs": [
        {
          "internalType": "uint256",
          "name": "",
          "type": "uint256"
        }
      ],
      "stateMutability": "view",
      "type": "function"
    },
    {
      "inputs": [],
      "name": "rateInfo",
      "outputs": [
        {
          "internalType": "string",
          "name": "tokenSymbol",
          "type": "string"
        },
        {
          "internalType": "string",
          "name": "baseTokenSymbol",
          "type": "string"
        }
      ],
      "stateMutability": "view",
      "type": "function"
    },
    {
      "inputs": [],
      "name": "rateProvider",
      "outputs": [
        {
          "internalType": "address",
          "name": "",
          "type": "address"
        }
      ],
      "stateMutability": "view",
      "type": "function"
    },
    {
      "inputs": [],
      "name": "renounceOwnership",
      "outputs": [],
      "stateMutability": "nonpayable",
      "type": "function"
    },
    {
      "inputs": [],
      "name": "srcChainId",
      "outputs": [
        {
          "internalType": "uint16",
          "name": "",
          "type": "uint16"
        }
      ],
      "stateMutability": "view",
      "type": "function"
    },
    {
      "inputs": [
        {
          "internalType": "address",
          "name": "newOwner",
          "type": "address"
        }
      ],
      "name": "transferOwnership",
      "outputs": [],
      "stateMutability": "nonpayable",
      "type": "function"
    },
    {
      "inputs": [
        {
          "internalType": "address",
          "name": "_layerZeroEndpoint",
          "type": "address"
        }
      ],
      "name": "updateLayerZeroEndpoint",
      "outputs": [],
      "stateMutability": "nonpayable",
      "type": "function"
    },
    {
      "inputs": [
        {
          "internalType": "address",
          "name": "_rateProvider",
          "type": "address"
        }
      ],
      "name": "updateRateProvider",
      "outputs": [],
      "stateMutability": "nonpayable",
      "type": "function"
    },
    {
      "inputs": [
        {
          "internalType": "uint16",
          "name": "_srcChainId",
          "type": "uint16"
        }
      ],
      "name": "updateSrcChainId",
      "outputs": [],
      "stateMutability": "nonpayable",
      "type": "function"
    }
  ],
  "transactionHash": "0x462c9565c1d54add35b1f9b03eb6bcce91613fb8b20ab80dcd0bce25d741fcf8",
  "args": [
    101,
    "0xB385BBc8Bfc80451cDbB6acfFE4D95671f4C051c",
    "0x9740FF91F1985D8d2B71494aE1A2f723bb3Ed9E4"
  ],
  "numDeployments": 1,
  "solcInputHash": "a3cfcdc4e3a36e455acccd8e5a83cd09",
  "bytecode": "0x60806040523480156200001157600080fd5b506040516200185438038062001854833981810160405281019062000037919062000328565b620000576200004b620001b360201b60201c565b620001bb60201b60201c565b60405180604001604052806040518060400160405280600481526020017f724554480000000000000000000000000000000000000000000000000000000081525081526020016040518060400160405280600381526020017f455448000000000000000000000000000000000000000000000000000000000081525081525060056000820151816000019081620000ef9190620005fe565b506020820151816001019081620001079190620005fe565b5090505082600360006101000a81548161ffff021916908361ffff16021790555081600360026101000a81548173ffffffffffffffffffffffffffffffffffffffff021916908373ffffffffffffffffffffffffffffffffffffffff16021790555080600460006101000a81548173ffffffffffffffffffffffffffffffffffffffff021916908373ffffffffffffffffffffffffffffffffffffffff160217905550505050620006e5565b600033905090565b60008060009054906101000a900473ffffffffffffffffffffffffffffffffffffffff169050816000806101000a81548173ffffffffffffffffffffffffffffffffffffffff021916908373ffffffffffffffffffffffffffffffffffffffff1602179055508173ffffffffffffffffffffffffffffffffffffffff168173ffffffffffffffffffffffffffffffffffffffff167f8be0079c531659141344cd1fd0a4f28419497f9722a3daafe3b4186f6b6457e060405160405180910390a35050565b600080fd5b600061ffff82169050919050565b6200029d8162000284565b8114620002a957600080fd5b50565b600081519050620002bd8162000292565b92915050565b600073ffffffffffffffffffffffffffffffffffffffff82169050919050565b6000620002f082620002c3565b9050919050565b6200030281620002e3565b81146200030e57600080fd5b50565b6000815190506200032281620002f7565b92915050565b6000806000606084860312156200034457620003436200027f565b5b60006200035486828701620002ac565b9350506020620003678682870162000311565b92505060406200037a8682870162000311565b9150509250925092565b600081519050919050565b7f4e487b7100000000000000000000000000000000000000000000000000000000600052604160045260246000fd5b7f4e487b7100000000000000000000000000000000000000000000000000000000600052602260045260246000fd5b600060028204905060018216806200040657607f821691505b6020821081036200041c576200041b620003be565b5b50919050565b60008190508160005260206000209050919050565b60006020601f8301049050919050565b600082821b905092915050565b600060088302620004867fffffffffffffffffffffffffffffffffffffffffffffffffffffffffffffffff8262000447565b62000492868362000447565b95508019841693508086168417925050509392505050565b6000819050919050565b6000819050919050565b6000620004df620004d9620004d384620004aa565b620004b4565b620004aa565b9050919050565b6000819050919050565b620004fb83620004be565b620005136200050a82620004e6565b84845462000454565b825550505050565b600090565b6200052a6200051b565b62000537818484620004f0565b505050565b5b818110156200055f576200055360008262000520565b6001810190506200053d565b5050565b601f821115620005ae57620005788162000422565b620005838462000437565b8101602085101562000593578190505b620005ab620005a28562000437565b8301826200053c565b50505b505050565b600082821c905092915050565b6000620005d360001984600802620005b3565b1980831691505092915050565b6000620005ee8383620005c0565b9150826002028217905092915050565b620006098262000384565b67ffffffffffffffff8111156200062557620006246200038f565b5b620006318254620003ed565b6200063e82828562000563565b600060209050601f83116001811462000676576000841562000661578287015190505b6200066d8582620005e0565b865550620006dd565b601f198416620006868662000422565b60005b82811015620006b05784890151825560018201915060208501945060208101905062000689565b86831015620006d05784890151620006cc601f891682620005c0565b8355505b6001600288020188555050505b505050505050565b61115f80620006f56000396000f3fe608060405234801561001057600080fd5b50600436106100e95760003560e01c8063679aefce1161008c5780638da5cb5b116100665780638da5cb5b146101ff578063949db6581461021d578063d0b06f5d1461023b578063f2fde38b14610259576100e9565b8063679aefce146101b8578063690adb53146101d6578063715018a6146101f5576100e9565b80632c4e722e116100c85780632c4e722e14610144578063496c62e71461016257806349d126051461017e5780634a7f931e1461019c576100e9565b80621d3567146100ee57806307968db11461010a578063290b535014610128575b600080fd5b61010860048036038101906101039190610b94565b610275565b005b610112610459565b60405161011f9190610c79565b60405180910390f35b610142600480360381019061013d9190610c94565b61047f565b005b61014c6104de565b6040516101599190610cda565b60405180910390f35b61017c60048036038101906101779190610d21565b6104e4565b005b610186610567565b6040516101939190610d5d565b60405180910390f35b6101b660048036038101906101b19190610d21565b61057b565b005b6101c06105fe565b6040516101cd9190610cda565b60405180910390f35b6101de610608565b6040516101ec929190610df7565b60405180910390f35b6101fd61072a565b005b61020761073e565b6040516102149190610c79565b60405180910390f35b610225610767565b6040516102329190610c79565b60405180910390f35b61024361078d565b6040516102509190610cda565b60405180910390f35b610273600480360381019061026e9190610d21565b610793565b005b600460009054906101000a900473ffffffffffffffffffffffffffffffffffffffff1673ffffffffffffffffffffffffffffffffffffffff163373ffffffffffffffffffffffffffffffffffffffff1614610305576040517f08c379a00000000000000000000000000000000000000000000000000000000081526004016102fc90610e7a565b60405180910390fd5b600060148501519050600360009054906101000a900461ffff1661ffff168661ffff1614610368576040517f08c379a000000000000000000000000000000000000000000000000000000000815260040161035f90610ee6565b60405180910390fd5b600360029054906101000a900473ffffffffffffffffffffffffffffffffffffffff1673ffffffffffffffffffffffffffffffffffffffff168173ffffffffffffffffffffffffffffffffffffffff16146103f8576040517f08c379a00000000000000000000000000000000000000000000000000000000081526004016103ef90610f52565b60405180910390fd5b600083838101906104099190610f9e565b905080600181905550426002819055507fe65c987b2e4668e09ba867026921588005b2b2063607a1e7e7d91683c8f91b7b816040516104489190610cda565b60405180910390a150505050505050565b600460009054906101000a900473ffffffffffffffffffffffffffffffffffffffff1681565b610487610816565b80600360006101000a81548161ffff021916908361ffff1602179055507f618f724fbcac3c2403733c2935c91acf3b9517362bacd763f22c288a58b17e25816040516104d39190610d5d565b60405180910390a150565b60015481565b6104ec610816565b80600360026101000a81548173ffffffffffffffffffffffffffffffffffffffff021916908373ffffffffffffffffffffffffffffffffffffffff1602179055507f0d06d9b44e07c32063e5d28b944beae17c12e342870c5e7d956ec5b252a3f5648160405161055c9190610c79565b60405180910390a150565b600360009054906101000a900461ffff1681565b610583610816565b80600460006101000a81548173ffffffffffffffffffffffffffffffffffffffff021916908373ffffffffffffffffffffffffffffffffffffffff1602179055507f07ac75b380fe4c5e41ea9b7030179bb21229b84ab9f9ba2fabebccd430ae2f6d816040516105f39190610c79565b60405180910390a150565b6000600154905090565b600580600001805461061990610ffa565b80601f016020809104026020016040519081016040528092919081815260200182805461064590610ffa565b80156106925780601f1061066757610100808354040283529160200191610692565b820191906000526020600020905b81548152906001019060200180831161067557829003601f168201915b5050505050908060010180546106a790610ffa565b80601f01602080910402602001604051908101604052809291908181526020018280546106d390610ffa565b80156107205780601f106106f557610100808354040283529160200191610720565b820191906000526020600020905b81548152906001019060200180831161070357829003601f168201915b5050505050905082565b610732610816565b61073c6000610894565b565b60008060009054906101000a900473ffffffffffffffffffffffffffffffffffffffff16905090565b600360029054906101000a900473ffffffffffffffffffffffffffffffffffffffff1681565b60025481565b61079b610816565b600073ffffffffffffffffffffffffffffffffffffffff168173ffffffffffffffffffffffffffffffffffffffff160361080a576040517f08c379a00000000000000000000000000000000000000000000000000000000081526004016108019061109d565b60405180910390fd5b61081381610894565b50565b61081e610958565b73ffffffffffffffffffffffffffffffffffffffff1661083c61073e565b73ffffffffffffffffffffffffffffffffffffffff1614610892576040517f08c379a000000000000000000000000000000000000000000000000000000000815260040161088990611109565b60405180910390fd5b565b60008060009054906101000a900473ffffffffffffffffffffffffffffffffffffffff169050816000806101000a81548173ffffffffffffffffffffffffffffffffffffffff021916908373ffffffffffffffffffffffffffffffffffffffff1602179055508173ffffffffffffffffffffffffffffffffffffffff168173ffffffffffffffffffffffffffffffffffffffff167f8be0079c531659141344cd1fd0a4f28419497f9722a3daafe3b4186f6b6457e060405160405180910390a35050565b600033905090565b6000604051905090565b600080fd5b600080fd5b600061ffff82169050919050565b61098b81610974565b811461099657600080fd5b50565b6000813590506109a881610982565b92915050565b600080fd5b600080fd5b6000601f19601f8301169050919050565b7f4e487b7100000000000000000000000000000000000000000000000000000000600052604160045260246000fd5b610a01826109b8565b810181811067ffffffffffffffff82111715610a2057610a1f6109c9565b5b80604052505050565b6000610a33610960565b9050610a3f82826109f8565b919050565b600067ffffffffffffffff821115610a5f57610a5e6109c9565b5b610a68826109b8565b9050602081019050919050565b82818337600083830152505050565b6000610a97610a9284610a44565b610a29565b905082815260208101848484011115610ab357610ab26109b3565b5b610abe848285610a75565b509392505050565b600082601f830112610adb57610ada6109ae565b5b8135610aeb848260208601610a84565b91505092915050565b600067ffffffffffffffff82169050919050565b610b1181610af4565b8114610b1c57600080fd5b50565b600081359050610b2e81610b08565b92915050565b600080fd5b600080fd5b60008083601f840112610b5457610b536109ae565b5b8235905067ffffffffffffffff811115610b7157610b70610b34565b5b602083019150836001820283011115610b8d57610b8c610b39565b5b9250929050565b600080600080600060808688031215610bb057610baf61096a565b5b6000610bbe88828901610999565b955050602086013567ffffffffffffffff811115610bdf57610bde61096f565b5b610beb88828901610ac6565b9450506040610bfc88828901610b1f565b935050606086013567ffffffffffffffff811115610c1d57610c1c61096f565b5b610c2988828901610b3e565b92509250509295509295909350565b600073ffffffffffffffffffffffffffffffffffffffff82169050919050565b6000610c6382610c38565b9050919050565b610c7381610c58565b82525050565b6000602082019050610c8e6000830184610c6a565b92915050565b600060208284031215610caa57610ca961096a565b5b6000610cb884828501610999565b91505092915050565b6000819050919050565b610cd481610cc1565b82525050565b6000602082019050610cef6000830184610ccb565b92915050565b610cfe81610c58565b8114610d0957600080fd5b50565b600081359050610d1b81610cf5565b92915050565b600060208284031215610d3757610d3661096a565b5b6000610d4584828501610d0c565b91505092915050565b610d5781610974565b82525050565b6000602082019050610d726000830184610d4e565b92915050565b600081519050919050565b600082825260208201905092915050565b60005b83811015610db2578082015181840152602081019050610d97565b60008484015250505050565b6000610dc982610d78565b610dd38185610d83565b9350610de3818560208601610d94565b610dec816109b8565b840191505092915050565b60006040820190508181036000830152610e118185610dbe565b90508181036020830152610e258184610dbe565b90509392505050565b7f53656e6465722073686f756c64206265206c7a20656e64706f696e7400000000600082015250565b6000610e64601c83610d83565b9150610e6f82610e2e565b602082019050919050565b60006020820190508181036000830152610e9381610e57565b9050919050565b7f53726320636861696e4964206d75737420626520636f72726563740000000000600082015250565b6000610ed0601b83610d83565b9150610edb82610e9a565b602082019050919050565b60006020820190508181036000830152610eff81610ec3565b9050919050565b7f5372632061646472657373206d7573742062652070726f766964657200000000600082015250565b6000610f3c601c83610d83565b9150610f4782610f06565b602082019050919050565b60006020820190508181036000830152610f6b81610f2f565b9050919050565b610f7b81610cc1565b8114610f8657600080fd5b50565b600081359050610f9881610f72565b92915050565b600060208284031215610fb457610fb361096a565b5b6000610fc284828501610f89565b91505092915050565b7f4e487b7100000000000000000000000000000000000000000000000000000000600052602260045260246000fd5b6000600282049050600182168061101257607f821691505b60208210810361102557611024610fcb565b5b50919050565b7f4f776e61626c653a206e6577206f776e657220697320746865207a65726f206160008201527f6464726573730000000000000000000000000000000000000000000000000000602082015250565b6000611087602683610d83565b91506110928261102b565b604082019050919050565b600060208201905081810360008301526110b68161107a565b9050919050565b7f4f776e61626c653a2063616c6c6572206973206e6f7420746865206f776e6572600082015250565b60006110f3602083610d83565b91506110fe826110bd565b602082019050919050565b60006020820190508181036000830152611122816110e6565b905091905056fea26469706673582212207a4bce5730114884430b54017ae31646886aab2ff6daaee017cc40c4d24ba07464736f6c63430008120033",
  "devdoc": {
    "author": "witherblock",
    "events": {
      "LayerZeroEndpointUpdated(address)": {
        "params": {
          "newLayerZeroEndpoint": "the LayerZero Endpoint address that was updated"
        }
      },
      "RateProviderUpdated(address)": {
        "params": {
          "newRateProvider": "the RateProvider address that was updated"
        }
      },
      "RateUpdated(uint256)": {
        "params": {
          "newRate": "the rate that was updated"
        }
      },
      "SrcChainIdUpdated(uint16)": {
        "params": {
          "newSrcChainId": "the source chainId that was updated"
        }
      }
    },
    "kind": "dev",
    "methods": {
      "lzReceive(uint16,bytes,uint64,bytes)": {
        "params": {
          "_payload": "The payload",
          "_srcAddress": "The source address",
          "_srcChainId": "The source chainId"
        }
      },
      "owner()": {
        "details": "Returns the address of the current owner."
      },
      "renounceOwnership()": {
        "details": "Leaves the contract without owner. It will not be possible to call `onlyOwner` functions anymore. Can only be called by the current owner. NOTE: Renouncing ownership will leave the contract without an owner, thereby removing any functionality that is only available to the owner."
      },
      "transferOwnership(address)": {
        "details": "Transfers ownership of the contract to a new account (`newOwner`). Can only be called by the current owner."
      },
      "updateLayerZeroEndpoint(address)": {
        "details": "Can only be called by owner",
        "params": {
          "_layerZeroEndpoint": "the new layer zero endpoint address"
        }
      },
      "updateRateProvider(address)": {
        "details": "Can only be called by owner",
        "params": {
          "_rateProvider": "the new rate provider address"
        }
      },
      "updateSrcChainId(uint16)": {
        "details": "Can only be called by owner",
        "params": {
          "_srcChainId": "the source chainId"
        }
      }
    },
    "title": "rETH cross chain rate receiver",
    "version": 1
  },
  "userdoc": {
    "events": {
      "LayerZeroEndpointUpdated(address)": {
        "notice": "Emitted when LayerZero Endpoint is updated"
      },
      "RateProviderUpdated(address)": {
        "notice": "Emitted when RateProvider is updated"
      },
      "RateUpdated(uint256)": {
        "notice": "Emitted when rate is updated"
      },
      "SrcChainIdUpdated(uint16)": {
        "notice": "Emitted when the source chainId is updated"
      }
    },
    "kind": "user",
    "methods": {
      "getRate()": {
        "notice": "Gets the last stored rate in the contract"
      },
      "lastUpdated()": {
        "notice": "Last time rate was updated"
      },
      "layerZeroEndpoint()": {
        "notice": "LayerZero endpoint address"
      },
      "lzReceive(uint16,bytes,uint64,bytes)": {
        "notice": "LayerZero receive function which is called via send from a different chain"
      },
      "rate()": {
        "notice": "Last rate updated on the receiver"
      },
      "rateInfo()": {
        "notice": "Information of which token and base token rate is being provided"
      },
      "rateProvider()": {
        "notice": "Rate Provider address"
      },
      "srcChainId()": {
        "notice": "Source chainId"
      },
      "updateLayerZeroEndpoint(address)": {
        "notice": "Updates the LayerZero Endpoint address"
      },
      "updateRateProvider(address)": {
        "notice": "Updates the RateProvider address"
      },
      "updateSrcChainId(uint16)": {
        "notice": "Updates the source chainId"
      }
    },
    "notice": "Receives the rETH rate from a provider contract on a different chain than the one this contract is deployed on",
    "version": 1
  },
  "storageLayout": {
    "storage": [
      {
        "astId": 7,
        "contract": "contracts/REthRateReceiver.sol:REthRateReceiver",
        "label": "_owner",
        "offset": 0,
        "slot": "0",
        "type": "t_address"
      },
      {
        "astId": 419,
        "contract": "contracts/REthRateReceiver.sol:REthRateReceiver",
        "label": "rate",
        "offset": 0,
        "slot": "1",
        "type": "t_uint256"
      },
      {
        "astId": 422,
        "contract": "contracts/REthRateReceiver.sol:REthRateReceiver",
        "label": "lastUpdated",
        "offset": 0,
        "slot": "2",
        "type": "t_uint256"
      },
      {
        "astId": 425,
        "contract": "contracts/REthRateReceiver.sol:REthRateReceiver",
        "label": "srcChainId",
        "offset": 0,
        "slot": "3",
        "type": "t_uint16"
      },
      {
        "astId": 428,
        "contract": "contracts/REthRateReceiver.sol:REthRateReceiver",
        "label": "rateProvider",
        "offset": 2,
        "slot": "3",
        "type": "t_address"
      },
      {
        "astId": 431,
        "contract": "contracts/REthRateReceiver.sol:REthRateReceiver",
        "label": "layerZeroEndpoint",
        "offset": 0,
        "slot": "4",
        "type": "t_address"
      },
      {
        "astId": 435,
        "contract": "contracts/REthRateReceiver.sol:REthRateReceiver",
        "label": "rateInfo",
        "offset": 0,
        "slot": "5",
        "type": "t_struct(RateInfo)440_storage"
      }
    ],
    "types": {
      "t_address": {
        "encoding": "inplace",
        "label": "address",
        "numberOfBytes": "20"
      },
      "t_string_storage": {
        "encoding": "bytes",
        "label": "string",
        "numberOfBytes": "32"
      },
      "t_struct(RateInfo)440_storage": {
        "encoding": "inplace",
        "label": "struct CrossChainRateReceiver.RateInfo",
        "members": [
          {
            "astId": 437,
            "contract": "contracts/REthRateReceiver.sol:REthRateReceiver",
            "label": "tokenSymbol",
            "offset": 0,
            "slot": "0",
            "type": "t_string_storage"
          },
          {
            "astId": 439,
            "contract": "contracts/REthRateReceiver.sol:REthRateReceiver",
            "label": "baseTokenSymbol",
            "offset": 0,
            "slot": "1",
            "type": "t_string_storage"
          }
        ],
        "numberOfBytes": "64"
      },
      "t_uint16": {
        "encoding": "inplace",
        "label": "uint16",
        "numberOfBytes": "2"
      },
      "t_uint256": {
        "encoding": "inplace",
        "label": "uint256",
        "numberOfBytes": "32"
      }
    }
  }
}